{
  "transactions": [
    {
      "hash": "0xfff92d6d5fe01111f9979d98bb41474547eb527ba85656ce7de65680cf8228a3",
      "transactionType": "CALL",
      "contractName": null,
      "contractAddress": "0xff05395dc2855fb13aa962dd52e377f2c79633f4",
      "function": "updateClaimDelay(uint256,uint256)",
      "arguments": [
        "0",
        "7"
      ],
      "transaction": {
        "from": "0x6928ad436b5dbc4a2cbaac22de06b7f9953b20ea",
        "to": "0xff05395dc2855fb13aa962dd52e377f2c79633f4",
        "gas": "0xb256",
        "value": "0x0",
        "input": "0xebcbf03800000000000000000000000000000000000000000000000000000000000000000000000000000000000000000000000000000000000000000000000000000007",
        "nonce": "0x76a",
        "chainId": "0x61",
        "accessList": null,
        "type": null
      },
      "additionalContracts": [],
      "isFixedGasLimit": false
    }
  ],
  "receipts": [
    {
      "status": "0x1",
      "cumulativeGasUsed": "0x17dbd",
      "logs": [],
      "logsBloom": "0x00000000000000000000000000000000000000000000000000000000000000000000000000000000000000000000000000000000000000000000000000000000000000000000000000000000000000000000000000000000000000000000000000000000000000000000000000000000000000000000000000000000000000000000000000000000000000000000000000000000000000000000000000000000000000000000000000000000000000000000000000000000000000000000000000000000000000000000000000000000000000000000000000000000000000000000000000000000000000000000000000000000000000000000000000000000",
      "type": "0x0",
      "transactionHash": "0xfff92d6d5fe01111f9979d98bb41474547eb527ba85656ce7de65680cf8228a3",
      "transactionIndex": "0x2",
      "blockHash": "0xbb678101bed11bdf0b81c4300cc5bed7f405f489dd743d22c223a277439996ab",
      "blockNumber": "0x2611104",
      "gasUsed": "0x811e",
      "effectiveGasPrice": "0x12a05f200",
      "from": "0x6928ad436b5dbc4a2cbaac22de06b7f9953b20ea",
      "to": "0xff05395dc2855fb13aa962dd52e377f2c79633f4",
      "contractAddress": null
    }
  ],
  "libraries": [],
  "pending": [],
  "returns": {},
  "timestamp": 1714460821,
  "chain": 97,
  "commit": "02cdd57"
}