{
  "transactions": [
    {
      "hash": "0x2cf60d95ef60e6c56e917649b65576bf4847ab5d2df2918a2ff38bd4d9cf28ce",
      "transactionType": "CALL",
      "contractName": null,
      "contractAddress": "0xff05395dc2855fb13aa962dd52e377f2c79633f4",
      "function": "addAccessors(address)",
      "arguments": [
        "0x3bC5d0827b6b80243c8970a3760DFec9b491b3e2"
      ],
      "transaction": {
        "from": "0x6928ad436b5dbc4a2cbaac22de06b7f9953b20ea",
        "to": "0xff05395dc2855fb13aa962dd52e377f2c79633f4",
        "gas": "0x13141",
        "value": "0x0",
        "input": "0x2333224a0000000000000000000000003bc5d0827b6b80243c8970a3760dfec9b491b3e2",
        "nonce": "0x76e",
        "chainId": "0x61",
        "accessList": null,
        "type": null
      },
      "additionalContracts": [],
      "isFixedGasLimit": false
    }
  ],
  "receipts": [
    {
      "status": "0x1",
      "cumulativeGasUsed": "0x772ba",
      "logs": [],
      "logsBloom": "0x00000000000000000000000000000000000000000000000000000000000000000000000000000000000000000000000000000000000000000000000000000000000000000000000000000000000000000000000000000000000000000000000000000000000000000000000000000000000000000000000000000000000000000000000000000000000000000000000000000000000000000000000000000000000000000000000000000000000000000000000000000000000000000000000000000000000000000000000000000000000000000000000000000000000000000000000000000000000000000000000000000000000000000000000000000000",
      "type": "0x0",
      "transactionHash": "0x2cf60d95ef60e6c56e917649b65576bf4847ab5d2df2918a2ff38bd4d9cf28ce",
      "transactionIndex": "0x6",
      "blockHash": "0xc70601c783212e9ac89a79f3c47bc4d3f0546e8402e4295502a7da6b0bcb4d58",
      "blockNumber": "0x2611123",
      "gasUsed": "0xdd00",
      "effectiveGasPrice": "0x12a05f200",
      "from": "0x6928ad436b5dbc4a2cbaac22de06b7f9953b20ea",
      "to": "0xff05395dc2855fb13aa962dd52e377f2c79633f4",
      "contractAddress": null
    }
  ],
  "libraries": [],
  "pending": [],
  "returns": {},
  "timestamp": 1714460915,
  "chain": 97,
  "commit": "02cdd57"
}