{
  "transactions": [
    {
      "hash": "0xa7d49afe47fdfe58037e5dee84d3ea041a93da20122f805780309bd6689e1d5d",
      "transactionType": "CALL",
      "contractName": null,
      "contractAddress": "0xff05395dc2855fb13aa962dd52e377f2c79633f4",
      "function": "claim(address,uint256)",
      "arguments": [
        "0x0000000000000000000000000000000000000000",
        "83113698630137000"
      ],
      "transaction": {
        "from": "0x6928ad436b5dbc4a2cbaac22de06b7f9953b20ea",
        "to": "0xff05395dc2855fb13aa962dd52e377f2c79633f4",
        "gas": "0xc151",
        "value": "0x0",
        "input": "0xaad3ec96000000000000000000000000000000000000000000000000000000000000000000000000000000000000000000000000000000000000000001274777f2d174a8",
        "nonce": "0x770",
        "chainId": "0x61",
        "accessList": null,
        "type": null
      },
      "additionalContracts": [],
      "isFixedGasLimit": false
    }
  ],
  "receipts": [
    {
      "status": "0x1",
      "cumulativeGasUsed": "0x8bf6",
      "logs": [],
      "logsBloom": "0x00000000000000000000000000000000000000000000000000000000000000000000000000000000000000000000000000000000000000000000000000000000000000000000000000000000000000000000000000000000000000000000000000000000000000000000000000000000000000000000000000000000000000000000000000000000000000000000000000000000000000000000000000000000000000000000000000000000000000000000000000000000000000000000000000000000000000000000000000000000000000000000000000000000000000000000000000000000000000000000000000000000000000000000000000000000",
      "type": "0x0",
      "transactionHash": "0xa7d49afe47fdfe58037e5dee84d3ea041a93da20122f805780309bd6689e1d5d",
      "transactionIndex": "0x0",
      "blockHash": "0x3c08f81da235f828e94f750af1f71c5961e58de278476ed6e689a53d0473edb5",
      "blockNumber": "0x2611158",
      "gasUsed": "0x8bf6",
      "effectiveGasPrice": "0x12a05f200",
      "from": "0x6928ad436b5dbc4a2cbaac22de06b7f9953b20ea",
      "to": "0xff05395dc2855fb13aa962dd52e377f2c79633f4",
      "contractAddress": null
    }
  ],
  "libraries": [],
  "pending": [],
  "returns": {},
  "timestamp": 1714461073,
  "chain": 97,
  "commit": "02cdd57"
}