{
  "transactions": [
    {
      "hash": "0x0146597a01916e20cffa1ba1454d18be36d1e198df227cb0920c10231004eee0",
      "transactionType": "CALL",
      "contractName": null,
      "contractAddress": "0xff05395dc2855fb13aa962dd52e377f2c79633f4",
      "function": "claim(uint256)",
      "arguments": [
        "0"
      ],
      "transaction": {
        "from": "0x6928ad436b5dbc4a2cbaac22de06b7f9953b20ea",
        "to": "0xff05395dc2855fb13aa962dd52e377f2c79633f4",
        "gas": "0x1ae35",
        "value": "0x0",
        "input": "0x379607f50000000000000000000000000000000000000000000000000000000000000000",
        "nonce": "0x766",
        "chainId": "0x61",
        "accessList": null,
        "type": null
      },
      "additionalContracts": [],
      "isFixedGasLimit": false
    }
  ],
  "receipts": [
    {
      "status": "0x1",
      "cumulativeGasUsed": "0x60f4b",
      "logs": [
        {
          "address": "0xff05395dc2855fb13aa962dd52e377f2c79633f4",
          "topics": [
            "0x47cee97cb7acd717b3c0aa1435d004cd5b3c8c57d70dbceb4e4458bbd60e39d4"
          ],
          "data": "0x0000000000000000000000006928ad436b5dbc4a2cbaac22de06b7f9953b20ea000000000000000000000000000000000000000000000000001abed35be497a8",
          "blockHash": "0x4564ee34eaa4cb7eb1d9380ec740e8fb5b891f3b93e7b3f2200b979d1afb3e6e",
          "blockNumber": "0x2610d48",
          "transactionHash": "0x0146597a01916e20cffa1ba1454d18be36d1e198df227cb0920c10231004eee0",
          "transactionIndex": "0x8",
          "logIndex": "0x6",
          "removed": false
        }
      ],
      "logsBloom": "0x00000000000000000000000000000000000000000000000000000000000000000000000000000000000000000000000000000010000000000100000000000000000000000000000400000000000000000000000000000000000000000000000000000000000000000000000000000000000000000000000000000000000000000000000000000000000000000000000000000000000000000000000000000000000000000000000000000000000000000000000040020000000000000000000000000000000000000000000000000000200000000000000000000000000000000000000000000000000000000000000000000000000000000000000000000000",
      "type": "0x0",
      "transactionHash": "0x0146597a01916e20cffa1ba1454d18be36d1e198df227cb0920c10231004eee0",
      "transactionIndex": "0x8",
      "blockHash": "0x4564ee34eaa4cb7eb1d9380ec740e8fb5b891f3b93e7b3f2200b979d1afb3e6e",
      "blockNumber": "0x2610d48",
      "gasUsed": "0x13777",
      "effectiveGasPrice": "0x12a05f200",
      "from": "0x6928ad436b5dbc4a2cbaac22de06b7f9953b20ea",
      "to": "0xff05395dc2855fb13aa962dd52e377f2c79633f4",
      "contractAddress": null
    }
  ],
  "libraries": [],
  "pending": [],
  "returns": {},
  "timestamp": 1714457955,
  "chain": 97,
  "commit": "933662c"
}