{
  "transactions": [
    {
      "hash": "0xc220084fa3897b5a170597fbee7e8908786ffd02cce2ccf8bc56a0d1176c5430",
      "transactionType": "CALL",
      "contractName": null,
      "contractAddress": "0xff05395dc2855fb13aa962dd52e377f2c79633f4",
      "function": "claim(uint256)",
      "arguments": [
        "0"
      ],
      "transaction": {
        "from": "0x6928ad436b5dbc4a2cbaac22de06b7f9953b20ea",
        "to": "0xff05395dc2855fb13aa962dd52e377f2c79633f4",
        "gas": "0x22934",
        "value": "0x0",
        "input": "0x379607f50000000000000000000000000000000000000000000000000000000000000000",
        "nonce": "0x765",
        "chainId": "0x61",
        "accessList": null,
        "type": null
      },
      "additionalContracts": [],
      "isFixedGasLimit": false
    }
  ],
  "receipts": [
    {
      "status": "0x1",
      "cumulativeGasUsed": "0x39aea",
      "logs": [
        {
          "address": "0xff05395dc2855fb13aa962dd52e377f2c79633f4",
          "topics": [
            "0x47cee97cb7acd717b3c0aa1435d004cd5b3c8c57d70dbceb4e4458bbd60e39d4"
          ],
          "data": "0x0000000000000000000000006928ad436b5dbc4a2cbaac22de06b7f9953b20ea000000000000000000000000000000000000000000000000000d5f69adf24bd4",
          "blockHash": "0x50cd9428784696da89cb0edee80a8ec1fafd961dc3c5554486655bcb6d0054ed",
          "blockNumber": "0x2610d2c",
          "transactionHash": "0xc220084fa3897b5a170597fbee7e8908786ffd02cce2ccf8bc56a0d1176c5430",
          "transactionIndex": "0x3",
          "logIndex": "0x5",
          "removed": false
        }
      ],
      "logsBloom": "0x00000000000000000000000000000000000000000000000000000000000000000000000000000000000000000000000000000010000000000100000000000000000000000000000400000000000000000000000000000000000000000000000000000000000000000000000000000000000000000000000000000000000000000000000000000000000000000000000000000000000000000000000000000000000000000000000000000000000000000000000040020000000000000000000000000000000000000000000000000000200000000000000000000000000000000000000000000000000000000000000000000000000000000000000000000000",
      "type": "0x0",
      "transactionHash": "0xc220084fa3897b5a170597fbee7e8908786ffd02cce2ccf8bc56a0d1176c5430",
      "transactionIndex": "0x3",
      "blockHash": "0x50cd9428784696da89cb0edee80a8ec1fafd961dc3c5554486655bcb6d0054ed",
      "blockNumber": "0x2610d2c",
      "gasUsed": "0x17a43",
      "effectiveGasPrice": "0x12a05f200",
      "from": "0x6928ad436b5dbc4a2cbaac22de06b7f9953b20ea",
      "to": "0xff05395dc2855fb13aa962dd52e377f2c79633f4",
      "contractAddress": null
    }
  ],
  "libraries": [],
  "pending": [],
  "returns": {},
  "timestamp": 1714457870,
  "chain": 97,
  "commit": "933662c"
}