{
  "transactions": [
    {
      "hash": "0x41777299d1808fbb7261370cf974f1ea99834ec7894588c5ee9408f3b83d2091",
      "transactionType": "CALL",
      "contractName": null,
      "contractAddress": "0xff05395dc2855fb13aa962dd52e377f2c79633f4",
      "function": "claim(uint256)",
      "arguments": [
        "0"
      ],
      "transaction": {
        "from": "0x6928ad436b5dbc4a2cbaac22de06b7f9953b20ea",
        "to": "0xff05395dc2855fb13aa962dd52e377f2c79633f4",
        "gas": "0x1ae35",
        "value": "0x0",
        "input": "0x379607f50000000000000000000000000000000000000000000000000000000000000000",
        "nonce": "0x767",
        "chainId": "0x61",
        "accessList": null,
        "type": null
      },
      "additionalContracts": [],
      "isFixedGasLimit": false
    }
  ],
  "receipts": [
    {
      "status": "0x1",
      "cumulativeGasUsed": "0x33e94",
      "logs": [
        {
          "address": "0xff05395dc2855fb13aa962dd52e377f2c79633f4",
          "topics": [
            "0x47cee97cb7acd717b3c0aa1435d004cd5b3c8c57d70dbceb4e4458bbd60e39d4"
          ],
          "data": "0x0000000000000000000000006928ad436b5dbc4a2cbaac22de06b7f9953b20ea000000000000000000000000000000000000000000000000000898c3efd29e76",
          "blockHash": "0x9eb3a6bd0dbb698e141fc143f55e2e83693cf605cb61a7c83736a05c6aa52176",
          "blockNumber": "0x2610d51",
          "transactionHash": "0x41777299d1808fbb7261370cf974f1ea99834ec7894588c5ee9408f3b83d2091",
          "transactionIndex": "0x5",
          "logIndex": "0x3",
          "removed": false
        }
      ],
      "logsBloom": "0x00000000000000000000000000000000000000000000000000000000000000000000000000000000000000000000000000000010000000000100000000000000000000000000000400000000000000000000000000000000000000000000000000000000000000000000000000000000000000000000000000000000000000000000000000000000000000000000000000000000000000000000000000000000000000000000000000000000000000000000000040020000000000000000000000000000000000000000000000000000200000000000000000000000000000000000000000000000000000000000000000000000000000000000000000000000",
      "type": "0x0",
      "transactionHash": "0x41777299d1808fbb7261370cf974f1ea99834ec7894588c5ee9408f3b83d2091",
      "transactionIndex": "0x5",
      "blockHash": "0x9eb3a6bd0dbb698e141fc143f55e2e83693cf605cb61a7c83736a05c6aa52176",
      "blockNumber": "0x2610d51",
      "gasUsed": "0x13777",
      "effectiveGasPrice": "0x12a05f200",
      "from": "0x6928ad436b5dbc4a2cbaac22de06b7f9953b20ea",
      "to": "0xff05395dc2855fb13aa962dd52e377f2c79633f4",
      "contractAddress": null
    }
  ],
  "libraries": [],
  "pending": [],
  "returns": {},
  "timestamp": 1714457981,
  "chain": 97,
  "commit": "933662c"
}