{
  "transactions": [
    {
      "hash": "0x61db182a58440027362b29135c1bc9654b5f596f94bca885dfb9e934aec0af57",
      "transactionType": "CALL",
      "contractName": null,
      "contractAddress": "0xff05395dc2855fb13aa962dd52e377f2c79633f4",
      "function": "updateMaxBooster(uint256,uint256)",
      "arguments": [
        "0",
        "6000"
      ],
      "transaction": {
        "from": "0x6928ad436b5dbc4a2cbaac22de06b7f9953b20ea",
        "to": "0xff05395dc2855fb13aa962dd52e377f2c79633f4",
        "gas": "0xc166",
        "value": "0x0",
        "input": "0x85d967a100000000000000000000000000000000000000000000000000000000000000000000000000000000000000000000000000000000000000000000000000001770",
        "nonce": "0x76b",
        "chainId": "0x61",
        "accessList": null,
        "type": null
      },
      "additionalContracts": [],
      "isFixedGasLimit": false
    },
    {
      "hash": "0xf05c184aa25f074a739b409a368203b906b1ae4711803f8c9beb34cc7de63f11",
      "transactionType": "CALL",
      "contractName": null,
      "contractAddress": "0xff05395dc2855fb13aa962dd52e377f2c79633f4",
      "function": "updatePoolApr(uint256,uint256)",
      "arguments": [
        "0",
        "55000"
      ],
      "transaction": {
        "from": "0x6928ad436b5dbc4a2cbaac22de06b7f9953b20ea",
        "to": "0xff05395dc2855fb13aa962dd52e377f2c79633f4",
        "gas": "0xc169",
        "value": "0x0",
        "input": "0x0bf7fc180000000000000000000000000000000000000000000000000000000000000000000000000000000000000000000000000000000000000000000000000000d6d8",
        "nonce": "0x76c",
        "chainId": "0x61",
        "accessList": null,
        "type": null
      },
      "additionalContracts": [],
      "isFixedGasLimit": false
    },
    {
      "hash": "0xa3a98be4f25e7df2fa02b1271df8324546ae3f6352f0954c3803c0c00216b8e7",
      "transactionType": "CALL",
      "contractName": null,
      "contractAddress": "0xff05395dc2855fb13aa962dd52e377f2c79633f4",
      "function": "updatePoolDuration(uint256,uint256)",
      "arguments": [
        "0",
        "730"
      ],
      "transaction": {
        "from": "0x6928ad436b5dbc4a2cbaac22de06b7f9953b20ea",
        "to": "0xff05395dc2855fb13aa962dd52e377f2c79633f4",
        "gas": "0xc17d",
        "value": "0x0",
        "input": "0x795af039000000000000000000000000000000000000000000000000000000000000000000000000000000000000000000000000000000000000000000000000000002da",
        "nonce": "0x76d",
        "chainId": "0x61",
        "accessList": null,
        "type": null
      },
      "additionalContracts": [],
      "isFixedGasLimit": false
    }
  ],
  "receipts": [
    {
      "status": "0x1",
      "cumulativeGasUsed": "0x5c299",
      "logs": [],
      "logsBloom": "0x00000000000000000000000000000000000000000000000000000000000000000000000000000000000000000000000000000000000000000000000000000000000000000000000000000000000000000000000000000000000000000000000000000000000000000000000000000000000000000000000000000000000000000000000000000000000000000000000000000000000000000000000000000000000000000000000000000000000000000000000000000000000000000000000000000000000000000000000000000000000000000000000000000000000000000000000000000000000000000000000000000000000000000000000000000000",
      "type": "0x0",
      "transactionHash": "0x61db182a58440027362b29135c1bc9654b5f596f94bca885dfb9e934aec0af57",
      "transactionIndex": "0x7",
      "blockHash": "0x292fc06913af718a1be70dcbbafc3fe0c02dee10a0be74d5733230dca25386a8",
      "blockNumber": "0x2611113",
      "gasUsed": "0x8c05",
      "effectiveGasPrice": "0x12a05f200",
      "from": "0x6928ad436b5dbc4a2cbaac22de06b7f9953b20ea",
      "to": "0xff05395dc2855fb13aa962dd52e377f2c79633f4",
      "contractAddress": null
    },
    {
      "status": "0x1",
      "cumulativeGasUsed": "0x64ea0",
      "logs": [],
      "logsBloom": "0x00000000000000000000000000000000000000000000000000000000000000000000000000000000000000000000000000000000000000000000000000000000000000000000000000000000000000000000000000000000000000000000000000000000000000000000000000000000000000000000000000000000000000000000000000000000000000000000000000000000000000000000000000000000000000000000000000000000000000000000000000000000000000000000000000000000000000000000000000000000000000000000000000000000000000000000000000000000000000000000000000000000000000000000000000000000",
      "type": "0x0",
      "transactionHash": "0xf05c184aa25f074a739b409a368203b906b1ae4711803f8c9beb34cc7de63f11",
      "transactionIndex": "0x8",
      "blockHash": "0x292fc06913af718a1be70dcbbafc3fe0c02dee10a0be74d5733230dca25386a8",
      "blockNumber": "0x2611113",
      "gasUsed": "0x8c07",
      "effectiveGasPrice": "0x12a05f200",
      "from": "0x6928ad436b5dbc4a2cbaac22de06b7f9953b20ea",
      "to": "0xff05395dc2855fb13aa962dd52e377f2c79633f4",
      "contractAddress": null
    },
    {
      "status": "0x1",
      "cumulativeGasUsed": "0x6dab6",
      "logs": [],
      "logsBloom": "0x00000000000000000000000000000000000000000000000000000000000000000000000000000000000000000000000000000000000000000000000000000000000000000000000000000000000000000000000000000000000000000000000000000000000000000000000000000000000000000000000000000000000000000000000000000000000000000000000000000000000000000000000000000000000000000000000000000000000000000000000000000000000000000000000000000000000000000000000000000000000000000000000000000000000000000000000000000000000000000000000000000000000000000000000000000000",
      "type": "0x0",
      "transactionHash": "0xa3a98be4f25e7df2fa02b1271df8324546ae3f6352f0954c3803c0c00216b8e7",
      "transactionIndex": "0x9",
      "blockHash": "0x292fc06913af718a1be70dcbbafc3fe0c02dee10a0be74d5733230dca25386a8",
      "blockNumber": "0x2611113",
      "gasUsed": "0x8c16",
      "effectiveGasPrice": "0x12a05f200",
      "from": "0x6928ad436b5dbc4a2cbaac22de06b7f9953b20ea",
      "to": "0xff05395dc2855fb13aa962dd52e377f2c79633f4",
      "contractAddress": null
    }
  ],
  "libraries": [],
  "pending": [],
  "returns": {},
  "timestamp": 1714460868,
  "chain": 97,
  "commit": "02cdd57"
}