{
  "transactions": [
    {
      "hash": "0x0030e6575e529752bebebfd9cc2cefc34eada8a505d25e61488a63a2818ce60e",
      "transactionType": "CALL",
      "contractName": null,
      "contractAddress": "0xff05395dc2855fb13aa962dd52e377f2c79633f4",
      "function": "createPool((uint256,uint256,uint256,uint256))",
      "arguments": [
        "(365, 50000, 7, 5000)"
      ],
      "transaction": {
        "from": "0x6928ad436b5dbc4a2cbaac22de06b7f9953b20ea",
        "to": "0xff05395dc2855fb13aa962dd52e377f2c79633f4",
        "gas": "0x295e5",
        "value": "0x0",
        "input": "0xabeffdc9000000000000000000000000000000000000000000000000000000000000016d000000000000000000000000000000000000000000000000000000000000c35000000000000000000000000000000000000000000000000000000000000000070000000000000000000000000000000000000000000000000000000000001388",
        "nonce": "0x769",
        "chainId": "0x61",
        "accessList": null,
        "type": null
      },
      "additionalContracts": [],
      "isFixedGasLimit": false
    }
  ],
  "receipts": [
    {
      "status": "0x1",
      "cumulativeGasUsed": "0x6911e",
      "logs": [],
      "logsBloom": "0x00000000000000000000000000000000000000000000000000000000000000000000000000000000000000000000000000000000000000000000000000000000000000000000000000000000000000000000000000000000000000000000000000000000000000000000000000000000000000000000000000000000000000000000000000000000000000000000000000000000000000000000000000000000000000000000000000000000000000000000000000000000000000000000000000000000000000000000000000000000000000000000000000000000000000000000000000000000000000000000000000000000000000000000000000000000",
      "type": "0x0",
      "transactionHash": "0x0030e6575e529752bebebfd9cc2cefc34eada8a505d25e61488a63a2818ce60e",
      "transactionIndex": "0x7",
      "blockHash": "0xb5f8512b971c18c2b463df2aac08ddf2e4c52679bdcb2f6270ea2b0e671a8891",
      "blockNumber": "0x26110ee",
      "gasUsed": "0x1df34",
      "effectiveGasPrice": "0x12a05f200",
      "from": "0x6928ad436b5dbc4a2cbaac22de06b7f9953b20ea",
      "to": "0xff05395dc2855fb13aa962dd52e377f2c79633f4",
      "contractAddress": null
    }
  ],
  "libraries": [],
  "pending": [],
  "returns": {},
  "timestamp": 1714460756,
  "chain": 97,
  "commit": "02cdd57"
}